S01400006F726967616D694C616D70322E737265636C
S113000009C021C049C1C1C01EC01DC01CC01BC045
S1130010DBC019C011241FBECFE9CDBF10E0A0E69C
S1130020B0E0ECE0F3E002C005900D92A436B10715
S1130030D9F720E0A4E6B0E001C01D92A736B207CC
S1130040E1F74DD061C1DCCFF894B89A88B38A60E7
S113005088BB84B3806384BB8FB583608FBD83B753
S1130060836083BF89B7826089BF85B7806385BF9A
S1130070AB9A84B784BF81B5806181BD81B5816647
S113008081BD87B1826487B978940895BD9A089533
S1130090BD98089586B7882361F087E592E00197BB
S11300A0F1F700C0000086B7815086BF86B7811182
S11300B0F4CF8FB58F778FBD8FEF80936200C09898
S11300C0E7DF87EB9BE00197F1F700C0000085B7FD
S11300D0806285BF889585B78F7D85BF0895B4DF1D
S11300E08AB780628ABF8BB780628BBFC1E087E624
S11300F090E10197F1F700C0000080916600833021
S113010010F0C8DFF4CF809165008823C1F0C09857
S113011080916600882371F0C09890E088B38C27A2
S113012088BBE7E8F2EC3197F1F700C000009F5F6D
S11301309430A1F78FB580688FBD109265008091CF
S11301406600823011F4A6DFD2CF8091620089303C
S113015038F486B78F3F59F286B78F5F86BFC7CF13
S113016080916200843640F486B7813508F4BFCFAD
S113017086B7815086BFBBCF86B7882321F086B768
S1130180815086BFB4CF86DFB2CF1F920F920FB6D5
S11301900F9211248F93809164008F5F8A3418F436
S11301A0809364000BC010926400809162008F3FC2
S11301B029F0809162008F5F809362008F910F908D
S11301C00FBE0F901F9018951F920F920FB60F92AB
S11301D011242F933F934F935F936F937F938F9348
S11301E09F93AF93BF93EF93FF938091610081112D
S11301F042C0809166008330F0F548DF8BED95E0D6
S11302000197F1F700C00000379A369A3699FECF6D
S113021084B195B196958795969587958C3820F4F9
S113022082E0809366000EC084B195B1969587955F
S113023096958795813A20F481E08093660002C008
S113024010926600379886B7811115C0B29B08C01A
S113025080916000843178F48F5F809360000BC0DC
S113026080916000843138F0109260001092620036
S113027081E080936500FF91EF91BF91AF919F91D1
S11302808F917F916F915F914F913F912F910F903B
S11302900FBE0F901F9018951F920F920FB60F92DA
S11302A011248F939F9380916100882359F08BE2EE
S11302B091E00197F1F700C00000B3991EC01092BD
S11302C06100A99AB39B16C080916600833060F0E8
S11302D01092660087EB9BE00197F1F700C00000E5
S11302E08AB780628ABF09C01092620081E080935D
S11302F0650003C083E0809366009F918F910F9007
S10F03000FBE0F901F901895F894FFCFCB
S107030C1401FF00D5
S9030000FC
