:1000000009C021C0E9C0ADC01EC01DC01CC01BC0BE
:10001000BEC019C011241FBECFE9CDBF10E0A0E6BD
:10002000B0E0E0E0F2E002C005900D92A236B10728
:10003000D9F720E0A2E6B0E001C01D92A436B207D5
:10004000E1F77BD0DBC0DCCFF89417BA18BAB89AC6
:10005000C19A8FB583608FBD83B7836083BF89B733
:10006000826089BF85B7806385BFA99A14BE88E185
:1000700081BD81E681BD789408958AB780628ABF88
:100080008BB780628BBF08958FB580688FBD86B7B0
:100090008F3F61F086B78F5F86BF8FE599E001974C
:1000A000F1F700C0000086B78F3FA1F7E6DF0895A3
:1000B00090E09C01220F331F220F331F820F931FEA
:1000C0009C01220F331F220F331F820F931F880FB3
:1000D000991F009761F020916300211108C00197DA
:1000E000EFE6F7E13197F1F700C00000F2CF089595
:1000F0009AEB80916300811113C086B7811105C00E
:100100000FC08FB58F778FBD089586B7815086BF9A
:10011000EFE2FAE23197F1F700C00000915049F7A1
:1001200086B7882371F30895A8DF85B7806285BFFD
:10013000889585B78F7D85BF089586DF80916300A0
:10014000813051F4A1DF1092630084E0B1DFD0DF91
:100150008AE0AEDFCDDFF2CF86B78111EFCFE4DFEB
:10016000EDCF1F920F920FB60F9211248F938091B3
:1001700062008F5F863218F48093620002C0109292
:1001800062008F910F900FBE0F901F9018951F92D5
:100190000F920FB60F9211248F9381B5806481BDA9
:1001A00086B7811113C0B29B08C080916000843172
:1001B00068F48F5F8093600009C080916000843193
:1001C00028F01092600081E0809363008F910F907F
:1001D0000FBE0F901F9018951F920F920FB60F929F
:1001E00011248F938BB78F7D8BBF81E08093630049
:1001F0008F910F900FBE0F901F901895F894FFCF1E
:020200001400E8
:00000001FF
