S01400006F726967616D694C616D70322E737265636C
S113000009C021C0C9C087C01EC01DC01CC01BC000
S11300109EC019C011241FBECFE9CDBF10E0A0E6D9
S1130020B0E0E0ECF1E002C005900D92A236B10719
S1130030D9F720E0A2E6B0E001C01D92A436B207D1
S1130040E1F75CD0BBC0DCCFF89417BA18BAB89A01
S1130050C19A8FB583608FBD83B7836083BF89B72F
S1130060826089BF85B7806385BFA99A14BE88E181
S113007081BD81E681BD789408958AB780628ABF84
S11300808BB780628BBF08958FB580688FBD8091D8
S113009063008823A9F080916300815080936300FA
S11300A086B78F3F19F086B78F5F86BF8FE795E2DB
S11300B00197F1F700C00000809163008111EBCF3C
S11300C0DCDF089586B7882361F086B7815086BF48
S11300D08FE29AE20197F1F700C0000086B7811120
S11300E0F4CF8FB58F778FBD0895C7DF85B7806252
S11300F085BF889585B78F7D85BF0895A5DF8091DD
S11301006300882311F0C0DFFACF86B78132B8F7D5
S1130110D9DFEBDFF4CF1F920F920FB60F921124A9
S11301208F93809162008F5F863218F4809362000F
S113013008C01092620086B7813218F086B78150E9
S113014086BF8F910F900FBE0F901F9018951F922E
S11301500F920FB60F9211248F9381B5806481BDE5
S113016086B7811113C0B29B08C0809160008431AE
S113017068F48F5F8093600009C0809160008431CF
S113018028F01092600088E9809363008F910F90AB
S11301900FBE0F901F9018951F920F920FB60F92DB
S11301A011248F938BB78F7D8BBF82E38093630081
S11301B08F910F900FBE0F901F901895F894FFCF5A
S10501C0140025
S9030000FC
